{
  "_format": "hh-sol-artifact-1",
  "contractName": "Token",
  "sourceName": "contracts/Token.sol",
  "abi": [
    {
      "inputs": [],
      "stateMutability": "nonpayable",
      "type": "constructor"
    },
    {
      "anonymous": false,
      "inputs": [
        {
          "indexed": true,
          "internalType": "address",
          "name": "_from",
          "type": "address"
        },
        {
          "indexed": true,
          "internalType": "address",
          "name": "_to",
          "type": "address"
        },
        {
          "indexed": false,
          "internalType": "uint256",
          "name": "_value",
          "type": "uint256"
        }
      ],
      "name": "Transfer",
      "type": "event"
    },
    {
      "inputs": [
        {
          "internalType": "address",
          "name": "account",
          "type": "address"
        }
      ],
      "name": "balanceOf",
      "outputs": [
        {
          "internalType": "uint256",
          "name": "",
          "type": "uint256"
        }
      ],
      "stateMutability": "view",
      "type": "function"
    },
    {
      "inputs": [
        {
          "internalType": "address",
          "name": "to",
          "type": "address"
        },
        {
          "internalType": "uint256",
          "name": "amount",
          "type": "uint256"
        }
      ],
      "name": "mint",
      "outputs": [],
      "stateMutability": "nonpayable",
      "type": "function"
    },
    {
      "inputs": [],
      "name": "name",
      "outputs": [
        {
          "internalType": "string",
          "name": "",
          "type": "string"
        }
      ],
      "stateMutability": "view",
      "type": "function"
    },
    {
      "inputs": [],
      "name": "owner",
      "outputs": [
        {
          "internalType": "address",
          "name": "",
          "type": "address"
        }
      ],
      "stateMutability": "view",
      "type": "function"
    },
    {
      "inputs": [],
      "name": "symbol",
      "outputs": [
        {
          "internalType": "string",
          "name": "",
          "type": "string"
        }
      ],
      "stateMutability": "view",
      "type": "function"
    },
    {
      "inputs": [],
      "name": "totalSupply",
      "outputs": [
        {
          "internalType": "uint256",
          "name": "",
          "type": "uint256"
        }
      ],
      "stateMutability": "view",
      "type": "function"
    },
    {
      "inputs": [
        {
          "internalType": "address",
          "name": "to",
          "type": "address"
        },
        {
          "internalType": "uint256",
          "name": "amount",
          "type": "uint256"
        }
      ],
      "name": "transfer",
      "outputs": [],
      "stateMutability": "nonpayable",
      "type": "function"
    }
  ],
  "bytecode": "0x60806040526040518060400160405280601081526020017f4d79204861726468617420546f6b656e00000000000000000000000000000000815250600090816100489190610385565b506040518060400160405280600381526020017f4d485400000000000000000000000000000000000000000000000000000000008152506001908161008d9190610385565b5069d3c21bcecceda10000006002553480156100a857600080fd5b50600254600460003373ffffffffffffffffffffffffffffffffffffffff1673ffffffffffffffffffffffffffffffffffffffff1681526020019081526020016000208190555033600360006101000a81548173ffffffffffffffffffffffffffffffffffffffff021916908373ffffffffffffffffffffffffffffffffffffffff160217905550610457565b600081519050919050565b7f4e487b7100000000000000000000000000000000000000000000000000000000600052604160045260246000fd5b7f4e487b7100000000000000000000000000000000000000000000000000000000600052602260045260246000fd5b600060028204905060018216806101b657607f821691505b6020821081036101c9576101c861016f565b5b50919050565b60008190508160005260206000209050919050565b60006020601f8301049050919050565b600082821b905092915050565b6000600883026102317fffffffffffffffffffffffffffffffffffffffffffffffffffffffffffffffff826101f4565b61023b86836101f4565b95508019841693508086168417925050509392505050565b6000819050919050565b6000819050919050565b600061028261027d61027884610253565b61025d565b610253565b9050919050565b6000819050919050565b61029c83610267565b6102b06102a882610289565b848454610201565b825550505050565b600090565b6102c56102b8565b6102d0818484610293565b505050565b5b818110156102f4576102e96000826102bd565b6001810190506102d6565b5050565b601f8211156103395761030a816101cf565b610313846101e4565b81016020851015610322578190505b61033661032e856101e4565b8301826102d5565b50505b505050565b600082821c905092915050565b600061035c6000198460080261033e565b1980831691505092915050565b6000610375838361034b565b9150826002028217905092915050565b61038e82610135565b67ffffffffffffffff8111156103a7576103a6610140565b5b6103b1825461019e565b6103bc8282856102f8565b600060209050601f8311600181146103ef57600084156103dd578287015190505b6103e78582610369565b86555061044f565b601f1984166103fd866101cf565b60005b8281101561042557848901518255600182019150602085019450602081019050610400565b86831015610442578489015161043e601f89168261034b565b8355505b6001600288020188555050505b505050505050565b610a2a806104666000396000f3fe608060405234801561001057600080fd5b506004361061007d5760003560e01c806370a082311161005b57806370a08231146100da5780638da5cb5b1461010a57806395d89b4114610128578063a9059cbb146101465761007d565b806306fdde031461008257806318160ddd146100a057806340c10f19146100be575b600080fd5b61008a610162565b6040516100979190610683565b60405180910390f35b6100a86101f0565b6040516100b591906106be565b60405180910390f35b6100d860048036038101906100d39190610768565b6101f6565b005b6100f460048036038101906100ef91906107a8565b61035f565b60405161010191906106be565b60405180910390f35b6101126103a8565b60405161011f91906107e4565b60405180910390f35b6101306103ce565b60405161013d9190610683565b60405180910390f35b610160600480360381019061015b9190610768565b61045c565b005b6000805461016f9061082e565b80601f016020809104026020016040519081016040528092919081815260200182805461019b9061082e565b80156101e85780601f106101bd576101008083540402835291602001916101e8565b820191906000526020600020905b8154815290600101906020018083116101cb57829003601f168201915b505050505081565b60025481565b600360009054906101000a900473ffffffffffffffffffffffffffffffffffffffff1673ffffffffffffffffffffffffffffffffffffffff163373ffffffffffffffffffffffffffffffffffffffff1614610286576040517f08c379a000000000000000000000000000000000000000000000000000000000815260040161027d906108d1565b60405180910390fd5b80600260008282546102989190610920565b9250508190555080600460008473ffffffffffffffffffffffffffffffffffffffff1673ffffffffffffffffffffffffffffffffffffffff16815260200190815260200160002060008282546102ee9190610920565b925050819055508173ffffffffffffffffffffffffffffffffffffffff16600073ffffffffffffffffffffffffffffffffffffffff167fddf252ad1be2c89b69c2b068fc378daa952ba7f163c4a11628f55a4df523b3ef8360405161035391906106be565b60405180910390a35050565b6000600460008373ffffffffffffffffffffffffffffffffffffffff1673ffffffffffffffffffffffffffffffffffffffff168152602001908152602001600020549050919050565b600360009054906101000a900473ffffffffffffffffffffffffffffffffffffffff1681565b600180546103db9061082e565b80601f01602080910402602001604051908101604052809291908181526020018280546104079061082e565b80156104545780601f1061042957610100808354040283529160200191610454565b820191906000526020600020905b81548152906001019060200180831161043757829003601f168201915b505050505081565b80600460003373ffffffffffffffffffffffffffffffffffffffff1673ffffffffffffffffffffffffffffffffffffffff1681526020019081526020016000205410156104de576040517f08c379a00000000000000000000000000000000000000000000000000000000081526004016104d5906109a0565b60405180910390fd5b80600460003373ffffffffffffffffffffffffffffffffffffffff1673ffffffffffffffffffffffffffffffffffffffff168152602001908152602001600020600082825461052d91906109c0565b9250508190555080600460008473ffffffffffffffffffffffffffffffffffffffff1673ffffffffffffffffffffffffffffffffffffffff16815260200190815260200160002060008282546105839190610920565b925050819055508173ffffffffffffffffffffffffffffffffffffffff163373ffffffffffffffffffffffffffffffffffffffff167fddf252ad1be2c89b69c2b068fc378daa952ba7f163c4a11628f55a4df523b3ef836040516105e791906106be565b60405180910390a35050565b600081519050919050565b600082825260208201905092915050565b60005b8381101561062d578082015181840152602081019050610612565b60008484015250505050565b6000601f19601f8301169050919050565b6000610655826105f3565b61065f81856105fe565b935061066f81856020860161060f565b61067881610639565b840191505092915050565b6000602082019050818103600083015261069d818461064a565b905092915050565b6000819050919050565b6106b8816106a5565b82525050565b60006020820190506106d360008301846106af565b92915050565b600080fd5b600073ffffffffffffffffffffffffffffffffffffffff82169050919050565b6000610709826106de565b9050919050565b610719816106fe565b811461072457600080fd5b50565b60008135905061073681610710565b92915050565b610745816106a5565b811461075057600080fd5b50565b6000813590506107628161073c565b92915050565b6000806040838503121561077f5761077e6106d9565b5b600061078d85828601610727565b925050602061079e85828601610753565b9150509250929050565b6000602082840312156107be576107bd6106d9565b5b60006107cc84828501610727565b91505092915050565b6107de816106fe565b82525050565b60006020820190506107f960008301846107d5565b92915050565b7f4e487b7100000000000000000000000000000000000000000000000000000000600052602260045260246000fd5b6000600282049050600182168061084657607f821691505b602082108103610859576108586107ff565b5b50919050565b7f4f6e6c79206f776e65722063616e206578656375746520746869732066756e6360008201527f74696f6e00000000000000000000000000000000000000000000000000000000602082015250565b60006108bb6024836105fe565b91506108c68261085f565b604082019050919050565b600060208201905081810360008301526108ea816108ae565b9050919050565b7f4e487b7100000000000000000000000000000000000000000000000000000000600052601160045260246000fd5b600061092b826106a5565b9150610936836106a5565b925082820190508082111561094e5761094d6108f1565b5b92915050565b7f4e6f7420656e6f75676820746f6b656e73000000000000000000000000000000600082015250565b600061098a6011836105fe565b915061099582610954565b602082019050919050565b600060208201905081810360008301526109b98161097d565b9050919050565b60006109cb826106a5565b91506109d6836106a5565b92508282039050818111156109ee576109ed6108f1565b5b9291505056fea26469706673582212206e3778ad714039ba148c171f32d93779eae5a6272b9cc272c43293c7d33d602364736f6c634300081c0033",
  "linkReferences": {},
  "deployedLinkReferences": {}
}